:020000040800F2
:10000000081701207D03000825320008332D000861
:10001000213200089D0C0008353700080000000060
:10002000000000000000000000000000890200083D
:10003000A10C000800000000E50200083B320008A7
:100040009703000897030008970300089703000828
:100050009703000897030008970300089703000818
:100060009703000897030008970300089703000808
:1000700097030008970300089703000897030008F8
:1000800097030008970300089703000897030008E8
:1000900097030008970300089703000897030008D8
:1000A00097030008970300089703000897030008C8
:1000B0009703000897030008193300089703000806
:1000C00097030008970300089703000897030008A8
:1000D0009703000897030008970300089703000898
:1000E0009703000897030008970300089703000888
:1000F0009703000897030008970300089703000878
:100100009703000897030008970300089703000867
:100110009703000897030008970300089703000857
:100120009703000897030008970300089703000847
:1001300097030008B10D0008970300089703000813
:100140009703000897030008970300089703000827
:100150009703000897030008970300089703000817
:100160009703000897030008970300089703000807
:100170009703000897030008970300080000000099
:10018000970300089703000800F002F800F06CF8ED
:100190000AA090E8000C82448344AAF10107DA45E2
:1001A00001D100F061F8AFF2090EBAE80F0013F0C8
:1001B000010F18BFFB1A43F001031847B8E3010011
:1001C000D8E301000A444FF0000C10F8013B13F093
:1001D000070408BF10F8014B1D1108BF10F8015BA0
:1001E000641E05D010F8016B641E01F8016BF9D193
:1001F00013F0080F1EBF10F8014BAD1C0C1B09D1EA
:100200006D1E58BF01F801CBFAD505E014F8016B5B
:1002100001F8016B6D1EF9D59142D6D370470000ED
:100220000023002400250026103A28BF78C1FBD8FF
:10023000520728BF30C148BF0B607047702900F0DB
:10024000DB81642900F06881752900F065817329DC
:1002500000F0BF84002070471FB516F021F900F0B0
:1002600086FA1FBD10B510BD00F0EAFC1146FFF77D
:10027000F3FF08F0B6F800F008FD03B4FFF7F2FF53
:1002800003BC03F07FFA00002C4B19680868B0E843
:10029000F04F80F30988BFF36F8F4FF0000080F3B9
:1002A000118870470000000008480068006880F36B
:1002B00008884FF0000080F3148862B661B6BFF37F
:1002C0004F8FBFF36F8F00DF00BF00BF08ED00E06E
:1002D000DFF80C00016841F470010160704700BF55
:1002E00088ED00E0EFF30980BFF36F8F134B1A68BE
:1002F0001EF0100F08BF20ED108A20E9F04F1060AB
:1003000009B44FF0500080F31188BFF34F8FBFF353
:100310006F8F14F0ADFE4FF0000080F3118809BC20
:1003200019680868B0E8F04F1EF0100F08BFB0EC75
:10033000108A80F30988BFF36F8F70478001002017
:10034000EFF30580704700000B49D1F800C04A6800
:100350005CF8043B1068184442F8040B8C4528BF35
:10036000A1F1DC0C8A4228BFA1F1DC02C1F800C077
:100370004A6020F000407047A00E012009488047E5
:1003800009480047FEE7FEE7FEE7FEE7FEE7FEE777
:10039000FEE7FEE7FEE7FEE704480549054A064B8F
:1003A000704700000533000889010008080F01208C
:1003B000081701200813012008130120704753EA91
:1003C000020C00F069802DE9F04B4FF00006002B85
:1003D0001FBFB3FA83F503FA05F424FA05F65E406D
:1003E00012BF1643B2FA82F502FA05F4C5F12005F0
:1003F0001EBF22FA05FC44EA0C04203556EA044CE0
:100400004FEA144418BF641C4FF000084FF0000975
:10041000904271EB030C39D3002919BFB1FA81F76F
:1004200001FA07F6B0FA80F700FA07F6C7F12007DD
:100430001EBF20FA07FC46EA0C062037B6FBF4FC88
:10044000A7EB0507103F07F01F0BCBF120060CFAB6
:100450000BFB2CFA06F644BFB3460026202FA4BFA0
:100460005E464FF0000B5BEA060C08BF4FF0010B35
:1004700019EB0B09ABFB027C48EB0608C01B06FB23
:1004800002CC0BFB03CC71EB0C01C1E70B4602461F
:1004900041464846BDE8F08B13B54FF000004FF0E1
:1004A0000001AFF30080BDE81C4070470FB4044961
:1004B00010B503AA029800F091FB10BC5DF814FB84
:1004C0000400002070B50C460546012A05D02878A6
:1004D000800600D5EA69002302E0012305E05B1CE9
:1004E000934202D2E05C0028F9D1A869E618C01A4C
:1004F000A861286A184428622846AFF3008004E007
:10050000D5E9012114F8010B9047B442F8D32846ED
:10051000AFF3008070BD00002DE9F04106460024D5
:1005200010687529314616A510D0AFF30080002859
:1005300002DA404213A507E031688A0701D512A507
:1005400002E0490704D511A5012401E0AFF30080C2
:1005500000210A2206F1240709E0B0FBF2FCB0FBFF
:10056000F2F302FB1C00303078541846491C002876
:10057000F3D123462A463046BDE8F04100F0BEBA2A
:10058000000000002D0000002B00000020000000F3
:10059000F0B40D460188090502D51B4C7C4402E0ED
:1005A000194C7C440E34002100F1240305E002F0D4
:1005B0000F061209A65D5E54491C002AF7D1027885
:1005C0000023120704D5702D06D009B1022311347F
:1005D0002246F0BC00F092BA01231034F8E770B55F
:1005E00004460D4621461068AFF3008002462946B6
:1005F0002046BDE87040CBE70368126843F0200353
:1006000003600823C361C3E744DB01002DE9F05F09
:10061000894604464FF0000ADFF824B1FB44C0F8D5
:1006200020A02046E168884700287DD0252806D0F4
:10063000D4E901219047206A401C2062F1E700259F
:100640005F462046E16888472028064607DB312EB2
:1006500005D2B81910F8200C08B10543F1E7A80736
:1006600001D525F00405C4F81CA00027C4F818A083
:100670002A2E09D0304603F07EF838B304EB870801
:10068000303EC8F8186019E059F8041B204604EB06
:1006900087029161E1688847012F064618D1E06919
:1006A000002820DA25F020051DE0D8F8180000EB1E
:1006B000800006EB40003038C8F818002046E1689A
:1006C0008847064603F057F80028EED1012F0AD0DC
:1006D0002E2E08D12046E16888477F1C0646022F4F
:1006E00045F02005C4DBA069002803DA404245F04C
:1006F0000105A061E80701D025F01005A6B1A6F11B
:100700004100192802D8203645F400654A46314692
:10071000204625604D46FFF791FD60B1012807D0C6
:10072000ED1D25F0070000E007E000F1080978E77B
:1007300005F1040975E730467AE7206ABDE8F09FC5
:10074000ECDA01000B4910B5A1F17C020A4CC2E9B8
:100750003712372106E000EB104342F82130074BF7
:1007600000FB03400B1EA1F10101F4DC10BD0120D0
:10077000E8E70000400E0120E119D666CD0D01002A
:10078000401ECAB210F8011F8A4202D00029F9D1D6
:100790000020704730B505460B462A4613F8014B3A
:1007A00012F8010B08B1A042F8D01CB1002802D009
:1007B0006D1CF1E7284630BD40EA010310B59B07E8
:1007C0000FD1042A0DD310C808C9121F9C42F8D0BB
:1007D00020BA19BA884201D9012010BD4FF0FF306C
:1007E00010BD1AB1D30703D0521C07E0002010BD82
:1007F00010F8013B11F8014B1B1B07D110F8013B0E
:1008000011F8014B1B1B01D1921EF1D1184610BDEE
:1008100010B5431C02E010F8011B71B18107FAD139
:100820004FF0013202C88C1A8C4314EAC211F9D07D
:10083000C01A0A0603D0C01E10BDC01A10BD0A049B
:1008400001D0801E10BD0902FCD0401E10BD40EA40
:10085000010370B59B072ED14FF00136042A2AD32D
:1008600008C810C99D1B9D43121F15EAC61517D055
:10087000D8B2E1B2401A50EA056110D198B2A1B2E3
:10088000401A50EA05410AD123F07F4024F07F410D
:10089000401A50EA052102D1180EA0EB146070BD79
:1008A000A342DBD018BA21BA884201D9012070BD19
:1008B0004FF0FF3070BD0AB9002070BD10F8013B49
:1008C00011F8014B63B1A3420AD1521E08D010F8AF
:1008D000013B11F8014B1BB1A34201D1521EEDD1D6
:1008E000181B70BD032A40F2308010F0030C00F09A
:1008F000158011F8013BBCF1020F624498BF11F85A
:1009000001CB00F8013B38BF11F8013BA2F1040212
:1009100098BF00F801CB38BF00F8013B11F003038A
:1009200000F02580083AC0F0088051F8043B083AEE
:1009300051F804CBA0E80810F5E7121D5CBF51F890
:10094000043B40F8043BAFF30080D20724BF11F80A
:10095000013B11F801CB48BF11F8012B24BF00F86F
:10096000013B00F801CB48BF00F8012B704710B5E0
:10097000203AC0F00B80B1E81850203AA0E8185097
:10098000B1E81850A0E81850BFF4F5AF5FEA027C58
:1009900024BFB1E81850A0E8185044BF18C918C0C7
:1009A000BDE810405FEA827C24BF51F8043B40F868
:1009B000043B08BF7047D20728BF31F8023B48BF4D
:1009C00011F8012B28BF20F8023B48BF00F8012B8B
:1009D000704702F0FF0343EA032242EA024200F0BA
:1009E00002B84FF000020429C0F0128010F0030C8E
:1009F00000F01B80CCF1040CBCF1020F18BF00F812
:100A0000012BA8BF20F8022BA1EB0C0100F00DB8C0
:100A10005FEAC17C24BF00F8012B00F8012B48BF1E
:100A200000F8012B70474FF0000200B513469446C2
:100A30009646203922BFA0E80C50A0E80C50B1F136
:100A40002001BFF4F7AF090728BFA0E80C5048BF4A
:100A50000CC05DF804EB890028BF40F8042B08BFE8
:100A6000704748BF20F8022B11F0804F18BF00F8E4
:100A7000012B70474FF0013C50F8042B51F8043B18
:100A80009A4221D1A2EB0C03934313EACC1317D162
:100A900050F8042B51F8043B9A4215D1A2EB0C03F9
:100AA000934313EACC130BD150F8042B51F8043BB9
:100AB0009A4209D1A2EB0C03934313EACC13DBD087
:100AC0004FF00000704700BFD01A01BAB1FA81F1AF
:100AD00001F0180122FA01F0CB40C1F12001DBB294
:100AE000C0B2C01A2CFA01F3D11A914311EAC31112
:100AF000E6D1704770477047704770472DE9F0475F
:100B00000D4699469246044600F12408016888067D
:100B100004D5E06921F01001216000E00120A84225
:100B200001DD471B00E00027A1697A1902EB0900EB
:100B3000081AA0612078C00602D42046AFF30080D6
:100B4000002608E0D4E901211AF806009047206A3F
:100B5000401C761C20624E45F4DB2078C0060AD586
:100B60002046AFF3008006E0D4E901213020904711
:100B7000206A401C2062381EA7F10107F4DC07E060
:100B8000D4E9012118F805009047206A401C206232
:100B9000281EA5F10105F3DC2046AFF30080207884
:100BA000000602D50220BDE8F0870120FBE710B562
:100BB000436913B1AFF3008001E0FFF783FC01202C
:100BC00010BD127800F124010A7000224A7001223F
:100BD000EDE711684FF0FF32E9E70000074B70B511
:100BE0000D467B4400F015F80446284600F024F832
:100BF00010B14FF0FF3070BD204670BDCB400000FB
:100C000000487047A80E012001694A1C026108785B
:100C1000704700B58FB0CDE901310021059105493C
:100C20007944CDE9031011466846FFF7EFFC0FB099
:100C300000BD0000E5FFFFFF007B00F08000704773
:100C40007546FFF7DDFFAE4605006946534620F0C6
:100C50000700854618B020B5FFF79EFBBDE8204091
:100C60004FF000064FF000074FF000084FF0000B68
:100C700021F00701AC46ACE8C009ACE8C009ACE81B
:100C8000C009ACE8C0098D46704710B50446AFF303
:100C900000802046BDE81040FFF7EFBA00BFFEE736
:100CA000704710B50146002227E002EB82040B6971
:100CB00003EBC4000023036043608360C3600362EE
:100CC00043624FF0004303604B6943F48043436049
:100CD000436823F00043436001F1480343F82200D6
:100CE000032A07D202EB82040B6903EBC403283307
:100CF000C36001E00B69C360521C042AD5D30024F1
:100D0000CC650C668C66CC668C650B6803F58053ED
:100D10000C69DC6010BD10B50146002222E002EB38
:100D20008204CB6803EBC40000230360436083604C
:100D3000C36001F1180343F82200036843F48013F1
:100D40000360032A07D202EB8204CB6803EBC403DF
:100D50002833C36001E0CB68C360036843F44003F9
:100D60000360521C042ADAD300248C620B6803F55A
:100D70008053CC681C6110BD38B50446002000903B
:100D8000206800F58050806940F48011206800F5EB
:100D900080508161206800F58050806900900120BA
:100DA00000F0C0FA0099206800F58050816138BDDC
:100DB00010B5024800F05CFB10BD0000544D00204F
:100DC00030B503461479557944EA0520084C0C44A3
:100DD0002064D4782406957844EA0544557844EA9A
:100DE0000524157844EA0500014C0C44606430BDCC
:100DF0000080024010B5A4B0044601208DF83C00EC
:100E00008DF83D0000200D908DF84B0001208DF8ED
:100E10004A0000208DF8480001208DF83A008DF836
:100E2000300000208DF84C008DF83B0014908DF8B8
:100E300054001D908DF878001F908DF882008DF879
:100E400080004FF480401090C010119000208DF869
:100E500081000BA9204600F08FF901208DF80C00CD
:100E60008DF80D008DF81D008DF80E000020059006
:100E70008DF81C008DF81E00089001208DF82400CC
:100E80008DF8040000040290800106904012049046
:100E900001208DF8250000200A9000906946204628
:100EA00000F00AF924B010BD0020704710B501F021
:100EB00047F810BD10B5024800F0DCFD002010BD61
:100EC000544D002070B504460D46164633462A465A
:100ED0002146044800F0FAFC10B14FF0FF3070BD1D
:100EE0000020FCE7544D002070B504460D46164620
:100EF00033462A462146044800F0EDFE10B14FF07B
:100F0000FF3070BD0020FCE7544D00202DE9F04F6C
:100F100081460C46174609F118021369D2F810C031
:100F20004FF0000A52F82310A568D346086800F075
:100F30000040B0F1004F04D002F1140050F823003B
:100F400010B10220BDE8F08F0AF1010A286888601C
:100F500048686FF30C00D5F804E040EA0E004860E2
:100F6000207800F0010038B1086820F44000D4F87F
:100F700014E040EA0E000860207800F0200038B14C
:100F8000086820F04060D4F810E040EA0E000860E5
:100F9000207800F0040018B1086840F08000086074
:100FA000086840F08050086053E0086820F0005066
:100FB000086027B1086840F08040086003E00868D6
:100FC00020F08040086000BF5B1C042B00D31B1F77
:100FD00000BF52F82310086800F00040B0F1004F45
:100FE00004D002F1140050F82300C8B1634652F84F
:100FF00023104FF000080FE0BFF35F8F086820F068
:101000000040086000BF5B1C042B00D31B1F00BF07
:1010100052F8231008F10108D045EDD3022091E7E2
:10102000086820F0805008600AF1010AAD6828685D
:10103000886048686FF30C00D5F804E040EA0E00C1
:1010400048600BF1010BBFF35F8F086840F0004070
:101050000860A8680028A8D127B1086840F080403F
:10106000086003E0086820F080400860086840F0ED
:101070000050086052F82C10BFF35F8F086840F0F2
:101080000040086002F1140E506A4EF8230013610C
:1010900000BFEFF31080064600BF012080F31088E8
:1010A00000BF0BF1010E906A7044906200BF86F39E
:1010B000108800BF002045E770B505460C4628683B
:1010C00000F5805086692B480640207B08B9012036
:1010D00000E000208006617B40EA4160617F09B941
:1010E000012100E0002140EA0150A17B40EA41508B
:1010F00061690843217F40EAC110A17F40EA811065
:10110000216A084394F8241040EA810006432868C5
:1011100000F580508661286800F5805086690120BE
:1011200000F000F9286800F5805086612179A068F8
:1011300040EA4160A16908432169084394F82510F9
:1011400040EAC110A16A40EA81002168084340F4E6
:101150000001286800F580500160286800F5805083
:101160000668012000F0DEF8286800F5805006606F
:1011700070BD0000233FDEF870B505460C462868B8
:1011800006683B480640A07B4006217C09B9012146
:1011900000E0002140EAC150617C09B9012100E072
:1011A000002140EA8150A1680843E17F40EA014004
:1011B00061690843A17F09B9012100E0002140EAEB
:1011C0004130217F40EA0130A1690843217940EA9A
:1011D000812094F8201009B9012100E0002140EAA3
:1011E0004120E17B40EAC110616A084394F828106D
:1011F00040EA011006432868066028680668012056
:1012000000F090F828680660286886694FF64170FB
:101210000640A06C000494F84C1009B9012100E0CC
:10122000002140EAC110216D084394F855100129AE
:1012300000D100E0002140EAC10094F856100129D5
:1012400000D100E0002140EA810094F85410012907
:1012500000D100E0002140EA410006432868866191
:1012600028688669012000F05DF82868866170BDF5
:101270000F8120FD2DE9F8430446002000904FF037
:101280000109A56E04F1480050F82560E76E2CE0D6
:10129000306A58B9684600F091FB009810B94FF0D9
:1012A000000903E0009830620098B060B9F1000FC7
:1012B0001BD0A06D30B9606940F0004040F4804020
:1012C000706003E0606940F480407060306840F016
:1012D0000040306000BF6D1C042D00D32D1F00BFE7
:1012E00004F1480050F825607F1E17B1B9F1000FD6
:1012F000CED1E06EB8420FD0681C00F00308BFF3F7
:101300005F8F08EB8801206900EBC101206800F5C0
:1013100080508160A566E766BDE8F88372B600BFBD
:10132000FEE7000070B5044600F00AFE06462546BA
:10133000681C10B104480078054400BF00F000FEAE
:10134000801BA842FAD370BD1000002010B50446DF
:10135000204600F00BF800F08000802803D10248FE
:10136000006808F0B9FC10BD200000200146D1F84B
:101370008C0070470146D1F888007047024609B9D1
:101380000120704710680068C0F3001081F8280041
:101390001068006800F06000486210680068C0F3E0
:1013A000402080F0010081F8200010680068C0F340
:1013B0000040C87710680068C0F3403080F001003A
:1013C000887710680068C0F30030087710680068FC
:1013D00000F4006088611068006800F48040486193
:1013E00010680068C0F3805080F0010048741068F5
:1013F0000068C0F3C05080F00100087410680068F5
:10140000C0F3C010C8731068006800F460208860E2
:1014100010680068C0F38020087110680068C0F38D
:101420004060887310688069C0F3400081F8540000
:1014300010688069C0F3C01080F0010081F84C0092
:101440001068806900F03000086510688069000C41
:10145000886410688069C0F3800081F856001068C5
:101460008069C0F3C00081F85500002089E70000C2
:101470002DE9F04104462068876B206800F5805014
:101480004569206800F58050C6693848D0F800806A
:1014900005F0400050B106F0400038B134492068F2
:1014A00000F580504161204600F0ACFA05F00100E3
:1014B00058B106F0010040B14FF00111206800F56D
:1014C00080504161204600F0F5FB05F4004088B3F0
:1014D00006F4004070B3D4F8880040F00800C4F867
:1014E000880005F40050A8B1206800F580504069DC
:1014F00020490840C4F88C00206800F58050C0697D
:1015000020F4C031206800F58050C161E020C4F8AB
:1015100084000CE0206800F58050406948F280614A
:101520000840C4F88C00206800F5805041612046D6
:10153000FFF70CFF07F0080058B12068C06A00F000
:101540006000C4F89400204600F042F90020C4F87E
:10155000940008F4002030B14FF4002003490860E3
:10156000204600F0B7FBBDE8F0810000143C0140CC
:101570004000010000207E0038B504460CB901206F
:1015800038BDD4F8840028B92320C4F8840020464C
:1015900000F074F800BF002000903548006840F467
:1015A0008040334908600846006800F4804000909D
:1015B00000BF00BF2F48006820F400002D490860DC
:1015C00008460068A16808432A4908600846006880
:1015D000206800F58050006840F00101206800F5A7
:1015E0008050016000F0ACFC05460DE000F0A8FC66
:1015F000401BB0F5FA7F07D90420C4F88800E0202A
:10160000C4F884000120BBE7206800F58050006822
:1016100000F001000028E9D12046FFF7EBFB20464F
:10162000FFF779FB2046FFF73CFB0021204662686C
:10163000FFF7C6FB2068C06B40F402702168C863E6
:101640002068D0F80C010C4908432168C1F80C014E
:101650002068D0F8100140F403102168C1F810018F
:101660000020C4F888001020C4F88400002087E718
:1016700044380240043801406000020010B586B0D2
:101680000446142101A8FFF7CEF94C49206888428E
:101690007ED100BF00BF002000904948006840F0A4
:1016A0000070474908600846006800F0007000902C
:1016B00000BF00BF00BF002000900846006840F057
:1016C000806008600846006800F08060009000BFFD
:1016D00000BF00BF002000900846006840F0006096
:1016E00008600846006800F00060009000BF00BF7E
:1016F00000BF00BF002000900846006840F00400D2
:1017000008600846006800F00400009000BF00BFB9
:1017100000BF002000900846006840F0010008600B
:101720000846006800F00100009000BF00BF00BF45
:10173000002000900846006840F00200086008465B
:10174000006800F00200009000BF00BF322001904E
:101750000220029000200390032004900B200590AB
:1017600001A9184800F0ECFA8620019002200290AE
:1017700000200390032004900B20059001A912483B
:1017800000F0DEFA4FF4605001900220029000E079
:1017900011E000200390032004900B20059001A984
:1017A0000A4800F0CDFA002205213D2000F090FC0F
:1017B0003D2000F079FC06B010BD00000080024022
:1017C000303802400008024000000240000402409D
:1017D00070472DE9F05F04460F464FF00008C346FE
:1017E00047B9D4F8880040F00100C4F8880001200F
:1017F000BDE8F09FD4F88400232801D00120F7E74A
:10180000E66D04F1480050F82650E06EC0F1040A7D
:101810003EE0286800F4807018B1E969A167A96901
:101820006167286800F4007008B9E06F20B3286889
:1018300000F4007010B10021216661662868C0F3D1
:101840000D49286800F4807018B1296821674FF0AD
:10185000010BA86828621FFA89F304F18001081FB0
:101860002A6A00F0D9F8206E401C2066606E00EBFA
:10187000090161660020286200BF761C042E00D397
:10188000361F00BF04F1480050F8265008F1010847
:10189000286800F0004020B9D04502D2BBF1000F0B
:1018A000B7D0E06E00EB0801E166E06E10B12046B3
:1018B000FFF7E0FCE665BBF1010F05D1E06F386092
:1018C0000021E167002093E7012091E72DE9F0472F
:1018D00005460E46174698462868046904F01C041D
:1018E0004FF4784000EAC62004434FF4F86000EA61
:1018F0008710044324F0020444F0010428680461C2
:1019000000F01EFB81460BE000F01AFBA0EB090083
:10191000B0F5803F02D30120BDE8F0872868046954
:1019200004F001000028EFD12868406980B2C8F8AF
:1019300000000020F0E72DE9F047064606F1180503
:10194000AF6AEC6A4FF0010830E04FF001097F1EEA
:1019500005F1140050F8240038B900BF641C042CB1
:1019600000D3241F00BF4FF00009B9F1000F1DD0B4
:1019700004EB8401F06850F8310000F0004098B9A1
:1019800005F1140151F8240000F09EF9002105F141
:10199000140040F8241000BF641C042C00D3241F42
:1019A00000BFAF62EC6201E04FF0000817B1B8F180
:1019B000000FCAD10020BDE8F08700007CB50446C6
:1019C0000D4807F093FA054685B105F12000206027
:1019D0000A4828614FF4C06120682B464122CDE9B6
:1019E00000010021084608F037FC04E0012004490A
:1019F0000870002020607CBDE8640108F1A900089F
:101A00001C00002010B504460248006808F064F984
:101A100010BD000020000020F0B504460D46214610
:101A20002E460020A2F12000002707600781438195
:101A30000F680FB9086001E03768386030600868E7
:101A400003E007891F44078100680028F9D1F0BD31
:101A500070B504460D460DB9012070BDD4F8840060
:101A6000102805D129462046FFF786FB0020F4E721
:101A70000120F2E770B506463068046924F01C04C2
:101A800000F05CFC05460D48854202D244F0080493
:101A900011E00B48854202D244F00C040BE00948E7
:101AA000854200D207E00848854202D244F004048F
:101AB00001E044F010043068046170BDC00E1602ED
:101AC0000087930300E1F50580D1F00870B5044666
:101AD000D4F88400102849D12320C4F884000121BF
:101AE000A1650421E1662046FFF7C4FB2068056874
:101AF0000120FFF717FC20680560206800F5805082
:101B0000806940F40051206800F5805081612068B0
:101B100000F58050806940F00201206800F5805097
:101B200081612046FFF728F92068006840F008002E
:101B300021680860206805680120FFF7F3FB206832
:101B400005602068006840F0040021680860206893
:101B500000F58050C06906490843216801F58051AD
:101B6000C8612320C4F88400002070BD0120FCE778
:101B7000C1A001002DE9F0410446D4F884002328D7
:101B800051D1C4F88400206800F58050C06927490D
:101B90000840216801F58051C861206800F5805037
:101BA000806920F40051206800F580508161206830
:101BB00000F58050806920F00201206800F5805017
:101BC00081612068006820F00400216808602068B6
:101BD00007680120FFF7A6FB206807602046FFF793
:101BE000CBF82068006820F00800216808602068B1
:101BF00007680120FFF796FB20680760002508E0D2
:101C000004F1480050F82560706840F000407060B2
:101C10006D1C042DF4D30021A1651020C4F88400AC
:101C20000020BDE8F0810120FBE700003E5FFEFFE1
:101C300070B504460D463DB9D4F8880040F0010067
:101C4000C4F88800012070BDD4F8840023282FD167
:101C5000696BE163012229462046FFF757F938B145
:101C6000D4F8880040F00200C4F888000120EAE7B8
:101C7000BFF34F8F00BFA06A401CA062A06A042877
:101C800002D3A06A001FA06200BF206800F5805048
:101C9000406900F0040048B10421206800F580503C
:101CA00041610021206800F5805041600020CAE7B2
:101CB0000120C8E710B504460248006808F00CF897
:101CC00010BD00002400002010B50446204608F096
:101CD000B3FD10BD70472DE9F04705460E46174687
:101CE00098462868046904F01C044FF4784000EA20
:101CF000C62004434FF4F86000EA8710044344F020
:101D0000020444F001041FFA88F029684861286839
:101D1000046100F015F981460BE000F011F9A0EB29
:101D20000900B0F5803F02D30120BDE8F0872868A4
:101D3000046904F001000028EFD100BFF5E70000BE
:101D4000F8B502460B460025002400200021D6E00D
:101D5000012606FA01F51E6806EA0504AC4274D1B4
:101D60001E7906F00306012E04D01E7906F0030644
:101D7000022E13D190684F000326BE40B0434F009F
:101D8000DE68BE4030439060506801268E40B0430C
:101D90001E79C6F300168E40304350601E7906F05F
:101DA0000306032E09D0D0684F000326BE40B0437F
:101DB0004F009E68BE403043D0601E7906F0030697
:101DC000022E13D1CF0802F1200656F827004E0745
:101DD000F70E0F26BE40B0434F07FF0E1E69BE40F0
:101DE0003043CF0802F1200646F8270010684F0064
:101DF0000326BE40B0431E7906F003064F00BE40E6
:101E0000304310605E6806F44036002E76D000BF86
:101E1000002600963C4E366846F480463A4F3E60B7
:101E20003E46366806F48046009600BF00BF374E37
:101E30008F0856F827008E07370F0F26BE40B04395
:101E4000334EB24202D1002624E057E0314EB24276
:101E500001D101261EE0304EB24201D1022619E026
:101E60002E4EB24201D1032614E02D4EB24201D1D2
:101E700004260FE02B4EB24201D105260AE02A4E7D
:101E8000B24201D1062605E0284EB24201D1072612
:101E900000E008268F073F0FBE4030431B4E8F08DF
:101EA00046F82700224E3068A0435E6806F480168C
:101EB00006B120431E4E3060361D3068A0435E6878
:101EC00006F4001606B12043194E361D3060184E38
:101ED000361F3068A0435E6806F4003606B1204322
:101EE000134E361F3060361F3068A0435E6806F41C
:101EF000803606B120430E4E083E3060491C102942
:101F0000FFF426AFF8BD0000443802400838014015
:101F1000000002400004024000080240000C0240A1
:101F2000001002400014024000180240001C024051
:101F3000083C01400AB1816101E00B0483617047F4
:101F4000014800687047000008000020034800684E
:101F500003490978084401490860704708000020D7
:101F60001000002010B50D48006840F400700B49C7
:101F700008600846006840F4806008600846006811
:101F800040F480700860032000F0E0F80F2000F0BB
:101F900007F800F05FF8002010BD0000003C024090
:101FA0002DE9F04188B004460027B84600BF002064
:101FB00001902348006840F0040021490860084669
:101FC000006800F00400019000BF00BF02A903A850
:101FD00000F092F9069F1FB900F0B6F9054602E03D
:101FE00000F0B2F945001748B5FBF0F0A0F1010888
:101FF00015481649086040F2E7311448C160C0F83E
:102000000480002101618160816100F065FC064669
:1020100096B90E4800F094FC06466EB91E2000F0FA
:1020200043F8102C07D2002221461E2000F050F861
:102030000748046000E00126304608B0BDE8F081A2
:102040004038024040420F00000800404802002093
:102050000C00002008B500BF002000901148006867
:1020600040F480400F4908600846006800F4804052
:10207000009000BF00BF00BF00200090081F006854
:1020800040F08050091F08600846006800F080504A
:10209000009000BF00BF00220F21901E00F018F832
:1020A00008BD0000443802400146084600280DDB08
:1020B00000BF00BF00F01F0301229A4043099B00AC
:1020C00003F1E023C3F8002100BF00BF00BF704749
:1020D0002DE9F05F80460D461646002701F02CFBE7
:1020E000074639462A46334601F00700C0F1070A81
:1020F000BAF1040F02D94FF0040A01E0C0F1070A57
:10210000D14600F1040ABAF1070F02D24FF0000ADB
:1021100001E0A0F1030AD4464FF0010A0AFA09FAD5
:10212000AAF1010A0AEA020A0AFA0CFA4FF0010BB4
:102130000BFA0CFBABF1010B0BEA030B4AEA0B04A5
:102140002146404601F000FBBDE8F09F00BF00F0D3
:102150000702064B19684FF6FF031940044B0B4367
:1021600043EA0221014B196000BF70470CED00E00B
:102170000000FA0570B504460D460CB9012070BD8B
:102180005848006800F00700A84209D255490D7070
:102190000846006800F00700A84201D00120EEE7E1
:1021A000207800F0020002281DD1207800F0040001
:1021B000042805D14C48006840F4E0504A490860C2
:1021C000207800F00800082805D14748006840F44E
:1021D0006040454908604448006820F0F000A1686C
:1021E000084341490860207800F00100A8B3606806
:1021F000012807D13C4808380068C0F34040B8B90E
:102200000120BCE76068022802D06068032807D17B
:10221000354808380068C0F3406048B90120AEE78F
:10222000314808380068C0F3400008B90120A6E72B
:102230002D48006820F00300616808432A490860BF
:10224000FFF77EFE064609E0FFF77AFE801B41F2AB
:102250008831884202D9032091E707E022480068CC
:1022600000F00C006168B0EB810FEDD11D480068F3
:1022700000F00700A84209D91A490D700846006805
:1022800000F00700A84201D0012078E7207800F094
:102290000400042807D11448006820F4E050E168E5
:1022A000084311490860207800F00800082808D188
:1022B0000D48006820F46040216940EAC1000A49E5
:1022C000086000F061F808490968C1F30311074A82
:1022D000515CC8400649086006480068FFF760FE88
:1022E00000204CE7003C024008380240D06401085E
:1022F000140000200C0000200F2202600D4A12681A
:1023000002F0030242600B4A126802F0F00282609F
:10231000084A126802F4E052C260064A126802F4E7
:102320006042D2080261044A126802F007020A60A1
:102330007047000008380240003C02400148006835
:10234000704700001400002000B5FFF7F7FF0449B4
:102350000968C1F38221034A515CC84000BD0000F6
:1023600008380240E064010800B5FFF7E7FF0449C0
:102370000968C1F34231034A515CC84000BD000006
:1023800008380240E06401082DE9F04700240025E8
:102390000026A1462548006800F00C0020B1042862
:1023A00005D008283AD105E0DFF8849039E0DFF85D
:1023B000849036E01D48001F006800F03F041B4871
:1023C000001F006800F4800078B11A481749091FFF
:1023D0000968C1F38811A0FB017001462246002361
:1023E0003846FDF7ECFF05460EE011480F49091F7E
:1023F0000968C1F38811A0FB017001462246002341
:102400003846FDF7DCFF05460848001F0068C0F3AA
:102410000140401C4600B5FBF6F902E0DFF81090E1
:1024200000BF00BF4846BDE8F08700000838024002
:102430000024F40040787D01F8B504460CB9012071
:10244000F8BD207800F00100002874D0F948006839
:1024500000F00C0004280DD0F648006800F00C00D5
:10246000082813D1F348001F006800F48000B0F57D
:10247000800F0BD1EF4808380068C0F340400028B7
:1024800059D06068002856D10120D9E700BF6068A4
:10249000B0F5803F08D1E7480838006840F4803044
:1024A000E449083908601EE06068B0F5A02F0DD13E
:1024B000E0480838006840F48020DE4908390860A8
:1024C0000846006840F4803008600CE0D9480838BD
:1024D000006820F48030D749083908600846006851
:1024E00020F48020086000BF606890B1FFF728FDED
:1024F000054606E0FFF724FD401B642801D90320B0
:102500009EE7CC4808380068C0F340400028F1D06E
:1025100011E0FFF715FD054606E0FFF711FD401B32
:10252000642801D903208BE7C24808380068C0F34B
:1025300040400028F1D1207800F0020002285FD14D
:10254000BC48006800F00C0058B1BA48006800F0C0
:102550000C0008281CD1B748001F006800F4800058
:10256000B0B9B44808380068C0F3400020B1E06852
:10257000012801D0012063E7AE480838006820F048
:10258000F800216940EAC100AA490839086037E02B
:10259000E06800B30120A8490860FFF7D1FC0546B8
:1025A00006E0FFF7CDFC401B022801D9032047E7D6
:1025B000A04808380068C0F340000028F1D09D48CA
:1025C0000838006820F0F800216940EAC100994904
:1025D0000839086014E0002097490860FFF7B0FC54
:1025E000054606E0FFF7ACFC401B022801D903209A
:1025F00026E7904808380068C0F340000028F1D171
:10260000207800F0080008282CD16069A8B10120CA
:102610008A490860FFF794FC054606E0FFF790FC46
:10262000401B022801D903200AE782486C30006869
:10263000C0F340000028F1D014E000207F4908607A
:10264000FFF77EFC054606E0FFF77AFC401B0228F8
:1026500001D90320F4E677486C300068C0F34000ED
:102660000028F1D1207800F00400042870D1002760
:1026700070483830006800F0805090B900BF0020EA
:1026800000906C483830006840F08050694938311B
:1026900008600846006800F08050009000BF00BF4E
:1026A00001276748006800F48070B0B9644800688A
:1026B00040F4807062490860FFF742FC054606E07E
:1026C000FFF73EFC401B022801D90320B8E65C4816
:1026D000006800F480700028F2D000BFA0680128D4
:1026E00008D154486830006840F001005149683111
:1026F00008601DE0A06805280DD14E4868300068CC
:1027000040F004004B49683108600846006840F01A
:10271000010008600CE047486830006820F00100C4
:102720004449683108600846006820F004000860E9
:1027300000BFA068A8B1FFF703FC054609E0FFF75A
:10274000FFFB401B41F28831884202D9032077E623
:1027500026E0384868300068C0F340000028EED01A
:1027600013E0FFF7EDFB054608E0FFF7E9FB401B30
:1027700041F28831884201D9032061E62D48683052
:102780000068C0F340000028EFD1012F07D129488D
:102790003830006820F0805026493831086000BF8A
:1027A000A069002845D02348006800F00C000828E4
:1027B0005DD0A069022845D100201F490866FFF7B7
:1027C000BFFB054606E0FFF7BBFB401B022801D913
:1027D000032035E6174808380068C0F34060002839
:1027E000F1D1D4E907010843616A40EA811101226D
:1027F000A06AC2EB500041EA00412C20005D41EA92
:1028000000600C49091F086001200B490866FFF7AA
:1028100097FB054606E0FFF793FB401B022801D912
:1028200003200DE6034808380068C0F34060002824
:10283000F1D049E00838024000004742800E47428C
:1028400000700040002021490866FFF779FB05462B
:1028500006E0FFF775FB401B022801D90320EFE5D6
:102860001B480068C0F340600028F2D12CE0A0694A
:10287000012800D1E4E51648001D0668A06901287A
:1028800020D006F48001E06981421BD106F03F01AF
:10289000206A814216D147F6C0703040616AB0EBC1
:1028A000811F0FD106F440310122A06AC2EB500013
:1028B000B1EB004F06D106F070612C20005DB1EB4A
:1028C000006F01D00120BBE50020B9E500004742C0
:1028D000003802407047704710B504460CB901201B
:1028E00010BD94F83D0028B9002084F83C00204633
:1028F00000F025F8022084F83D00211D206800F03A
:1029000013FD012084F8460000BF84F83E00012139
:102910003F200155402001554120015500BF00BF17
:10292000012084F8420043200155442001554520F0
:10293000015500BF012084F83D000020D0E770471A
:10294000014691F83D00012801D001207047022086
:1029500081F83D000868C06840F001000B68D8604D
:102960001A4B086898421BD00868B0F1804F17D006
:10297000174B0868984213D0164B086898420FD03E
:10298000154B086898420BD0144B0868984207D042
:10299000134B0868984203D0124B086898420CD138
:1029A0000868806800F00702062A0CD008680068F2
:1029B00040F001000B68186005E00868006840F00E
:1029C00001000B6818600020C0E700000000014013
:1029D0000004004000080040000C004000040140DA
:1029E0000040014000180040704770B50446206860
:1029F000C5682068066906F00200022819D105F0B2
:102A00000200022815D1401F2168086101202077AB
:102A10002068806900F0030018B12046FFF7E4FF4A
:102A200005E0204600F097F8204600F095F80020D9
:102A3000207706F00400042819D105F004000428CA
:102A400015D1C04321680861022020772068806981
:102A500000F4407018B12046FFF7C6FF05E020469D
:102A600000F079F8204600F077F80020207706F093
:102A70000800082819D105F00800082815D1C0431E
:102A800021680861042020772068C06900F00300F5
:102A900018B12046FFF7A8FF05E0204600F05BF8DC
:102AA000204600F059F80020207706F0100010288A
:102AB00019D105F01000102815D1C0432168086114
:102AC000082020772068C06900F4407018B12046C3
:102AD000FFF78AFF05E0204600F03DF8204600F0B1
:102AE0003BF80020207706F0010048B105F0010016
:102AF00030B16FF0010021680861204600F02EF827
:102B000006F08000802809D105F08000802805D1DA
:102B1000C043216808612046FFF7DCFE06F0400054
:102B2000402809D105F04000402805D1C043216864
:102B30000861204600F01EF806F02000202809D188
:102B400005F02000202805D1C043216808612046F7
:102B5000FFF7C1FE70BD70477047000010B5044616
:102B600003492068884201D1FFF7F0F910BD000049
:102B700000080040704710B504460CB9012010BD94
:102B8000A06900B100E000BF94F8410028B900201E
:102B900084F84000204600F029F8242084F8410001
:102BA0002068C06820F400502168C860204600F00A
:102BB00065FC2068006920F4904021680861206865
:102BC000406920F02A00216848612068C06840F40C
:102BD00000502168C86000206064202084F8410013
:102BE00084F842000020606300BFC8E710B586B0DB
:102BF0000446142101A8FDF716FF1B4920688842EE
:102C000030D100BF002000901848006840F010004C
:102C1000164908600846006800F01000009000BFE8
:102C200000BF00BF0020009010481438006840F03A
:102C300001000E49143908600846006800F00100E0
:102C4000009000BF00BF4FF4C060019002200290CE
:102C500000200390032004900720059001A9044858
:102C6000FFF76EF806B010BD001001404438024076
:102C7000000002402DE9F84F04460E4617469946DB
:102C80004FF0000A94F84100202850D106B117B93E
:102C90000120BDE8F88F00206064212084F8410005
:102CA000FFF74EF98246A784E784A068B0F5805FFD
:102CB00004D1206910B90025B04602E035464FF036
:102CC00000081EE05346002280212046CDF80090E7
:102CD00000F0EAFC20B1202084F841000320D8E76E
:102CE00045B9B8F80000C0F308002168486008F151
:102CF000020803E02878216848606D1CE08C401EC3
:102D0000E084E08C0028DDD153460022402120469B
:102D1000CDF8009000F0C8FC20B1202084F84100DC
:102D20000320B6E7202084F841000020B1E702200C
:102D3000AFE700BFFEE738B50446002000906A46C2
:102D40000121636920689847002802DA6FF00400C7
:102D500038BD6A460121636920689847002802DA75
:102D60006FF00400F4E7009800F0040008B90120B7
:102D7000EEE76A460021636920689847002802DA76
:102D80006FF00400E4E7009800F48050B0F5805F35
:102D90001FD0009800F40050B0F5005F07D10098F4
:102DA00000F48070B0F5807F01D10220D0E7009858
:102DB00000F40050B0F5005F01D10320C8E700988F
:102DC00000F48070B0F5807F01D10420C0E70520B9
:102DD000BEE76A461F21636920689847002802DA27
:102DE0006FF00400B4E7009800F4805008B90620A2
:102DF000AEE7009800F01C00182801D10220A7E7D8
:102E0000009800F01C00082801D10320A0E70098DA
:102E100000F01C00142801D1042099E7052097E751
:102E2000F8B504460020009000250026606830BBFD
:102E3000A06808B1A068804720202060002513E02A
:102E40006A461221284663699847002802DA6FF023
:102E5000040608E0009800F01F00A84202D1256097
:102E6000002603E000BF6D1C1F2DE9D900BF2068BC
:102E70001F2801D96FF002060EB9012060603046AC
:102E8000F8BD02462AB1C86818B1886808B1086957
:102E900010B94FF0FF307047086890604B68D360FE
:102EA000CB6853618B6813610B6993610020F2E773
:102EB00010B5044A0021044806F03CFF03490860AD
:102EC00010BD0000AC640108293200080000002099
:102ED00000B587B0142102A8FDF7A5FD00BF0020B2
:102EE00001902648006840F0040024490860084624
:102EF000006800F00400019000BF00BF00BF002088
:102F000001900846006840F08000086008460068AC
:102F100000F08000019000BF00BF00BF00200190C2
:102F20000846006840F0010008600846006800F0AC
:102F30000100019000BF00BF00BF002001900846C3
:102F4000006840F0020008600846006800F00200D7
:102F5000019000BF00BF012211460948FEF7EAFFB9
:102F6000012002900390002004900320059002A904
:102F70000348FEF7E5FE07B000BD00003038024010
:102F8000000802400EB5C02089490870A82048708A
:102F9000002088700720C870FF208649087048709C
:102FA00088700020C870C02083490870A82048702D
:102FB000002088700120C8700021084611F0B6F882
:102FC0007B48007800067A49497840EA0140784910
:102FD000897840EA01207649C97808430206744896
:102FE000007800067249497840EA014070498978C2
:102FF00040EA01206E49C978084300F47F4042EA64
:1030000000226B48007800066949497840EA01418E
:103010006748807841EA00206549C978084300F490
:103020007F0042EA1022624800780106604840783A
:1030300041EA00415E48807841EA00205C49C97855
:10304000084342EA10605D4908605A48007800066B
:103050005849497840EA01405649897840EA0120B8
:103060005449C9780843020652480078000651497D
:10307000497840EA01404F49897840EA01204D49AA
:10308000C978084300F47F4042EA002249480078AA
:1030900000064849497840EA01414648807841EABB
:1030A00000204449C978084300F47F0042EA102216
:1030B0004048007801063F48407841EA00413D48D9
:1030C000807841EA00203B49C978084342EA106011
:1030D0003B4908603848007800063749497840EA9B
:1030E00001403549897840EA01203349C9780843CD
:1030F00002063148007800062F49497840EA01402D
:103100002D49897840EA01202B49C978084300F409
:103110007F4042EA00222848007800062649497884
:1031200040EA01412448807841EA00202249C978D8
:10313000084300F47F0042EA10221F48007801068D
:103140001D48407841EA00411B48807841EA002050
:103150001949C978084342EA10601A4908601A48B8
:103160001A490022174BCDE900210290144A134955
:10317000174805F007FF164806F08CF9144806F0CA
:10318000CBFA1449124806F0F3F924211248FDF74E
:103190004AFC12A0104908604FF48060486110207A
:1031A00088610A460A490F4806F0C4FD0EBD0000BA
:1031B000480000204C000020500000203C0000206F
:1031C000400000204400002025430108594B00081E
:1031D0005C4E002075490008904E00204574684CF4
:1031E000696E6B007949000810B50B480B490860FF
:1031F0004FF4E1304860002108488160C1600161FE
:103200000C21416100218161C161FFF7B4FC08B16B
:10321000FEF784F810BD00000010014000020020FD
:1032200000BFFEE700BFFEE7FFF7ACFE03F012FAB7
:1032300000BF012006F0D0FAFBE710B54FF0E02008
:10324000006912F07BFE012801D012F00DF810BDCC
:1032500000B593B0302107A8FDF7E5FB142102A8C3
:10326000FDF7E1FB00BF002001902448006840F01A
:103270008050224908600846006800F080500190A4
:1032800000BF00BF00BF002001901D48006840F44F
:1032900080401B4908600846006800F480400190A7
:1032A00000BF00BF012007900004089002200D908D
:1032B00041050E9119210F914FF4A871109102212F
:1032C00011910721129107A8FFF7B6F808B1FEF790
:1032D00025F80F20029002200390002004904FF464
:1032E000A05005904FF480500690052102A8FEF7EB
:1032F00041FF08B1FEF712F813B000BD403802409C
:10330000007000400348006840F470000149086004
:103310007047000088ED00E010B50248FFF765FB3C
:1033200010BD00004802002010B502682D4B9842E5
:103330000ED0B0F1804F0BD02B4B984208D02B4BC6
:10334000984205D02A4B984202D02A4B984203D18A
:1033500022F070024B681A43224B984220D0B0F101
:10336000804F1DD0204B98421AD0204B984217D046
:103370001F4B984214D01F4B984211D01E4B9842BD
:103380000ED01E4B98420BD01D4B984208D01D4BBF
:10339000984205D01C4B984202D01C4B984203D156
:1033A00022F44072CB681A4322F080034C6943EA4E
:1033B000040202608B68C3620B688362094B984207
:1033C00002D00C4B984201D10B6903630123436186
:1033D000036903F001031BB1036923F001030361D7
:1033E00010BD000000000140000400400008004043
:1033F000000C004000040140004001400044014036
:103400000048014000180040001C0040002000401F
:1034100000BF00BF02680C3252E8002F22F4907106
:1034200002680C3242E80013002BF3D100BF00BF4A
:1034300000BF0268143252E8002F22F00101026836
:10344000143242E80013002BF3D100BF016B0129B5
:103450000ED100BF00BF02680C3252E8002F22F0EC
:10346000100102680C3242E80013002BF3D100BFB8
:10347000202180F842100021016370472DE9F84FA8
:1034800004462068006920F44050E1680843216840
:1034900008612169A068084361690843E16908433C
:1034A00000902068C06849F20C6188430099084385
:1034B0002168C8602068406920F44070A169084311
:1034C0002168486176492068884203D075492068A0
:1034D000884203D1FEF748FF814602E0FEF734FF41
:1034E0008146E069B0F5004F6CD102206168A0FB15
:1034F000015003461920A9FB007001462A463846B0
:10350000FCF75DFF6421B0FBF1F04FEA001A0220E6
:103510006168A0FB01510B461920A9FB00712A46E6
:103520003846FCF74CFF834602206168A0FB01503F
:1035300003461920A9FB00712A463846FCF73FFFD5
:103540006421B0FBF1F000EBC00101EB0010ABEB2C
:103550008000322101EBC0006421B0FBF1F000F0EB
:10356000F8000AEB400A02206168A0FB0150034604
:103570001920A9FB007001462A463846FCF71FFFB8
:10358000834602206168A0FB015003461920A9FB75
:1035900000712A463846FCF712FF6421B0FBF1F0B7
:1035A00000EBC00101EB0010ABEB8000322101EB1E
:1035B000C0006421B0FBF1F000F007005044216826
:1035C00088606AE004206168A0FB0150034619206E
:1035D000A9FB007001462A463846FCF7F0FE8246F9
:1035E00004206168A0FB015003461920A9FB00706C
:1035F00001462A463846FCF7E2FE6421B0FBF1F0B2
:1036000000EBC00101EB0010AAEB8000322101EBBE
:1036100000106421B0FBF1F000F0F00A04206168B2
:10362000A0FB017003461920A9FB00513A46284629
:10363000FCF7C5FE6421B0FBF1F00AEB001A042090
:103640006168A0FB01510B461920A9FB00712A46B5
:103650003846FCF7B4FE834604206168A0FB0150A5
:1036600003461920A9FB007001462A463846FCF79C
:10367000A6FE6421B0FBF1F000EBC00101EB0010ED
:10368000ABEB8000322101EB00106421B0FBF1F0C4
:1036900000F00F00504421688860BDE8F88F0000FA
:1036A00000100140001401402DE9F84304460D4686
:1036B00017469846089E31E0701C70B3FEF740FC38
:1036C000A0EB0800B04200D816B90320BDE8F8838B
:1036D0002068C06800F00400F8B1802D1ED0402D95
:1036E0001CD020680068C0F3C000B0B100BF00204B
:1036F000009020680068009020684068009000BF3B
:1037000000BF2046FFF784FE0820606400BF002051
:1037100084F8400000BF0120D8E7FFE72068006878
:103720002840A84201D1012000E00020B842C3D0C7
:103730000020CBE700BFFEE702480068C0F302208C
:10374000704700000CED00E010B5002804DB0A070C
:10375000130E054A135406E00A07140E034A00F03C
:103760000F031B1FD45410BD00E400E018ED00E06F
:10377000EFF30580704730380A2801D201207047E6
:103780000020704700BF70472DE9F04104460D4608
:1037900000BF05F00300002808D000BF0BA34FF4C2
:1037A000B67216A11DA0FCF781FE00BF00BF2E4619
:1037B00008F03CFA0746E06800683060E0680660A0
:1037C000384608F03FFABDE8F08100002E2E2F4D5C
:1037D0006964646C6577617265732F54686972649B
:1037E0005F50617274792F4C7749502F7372632F39
:1037F000636F72652F6D656D702E63006D656D7002
:103800005F667265653A206D656D2070726F7065D8
:10381000726C7920616C69676E65640041737365D1
:103820007274696F6E2022257322206661696C654F
:1038300064206174206C696E6520256420696E20A7
:1038400025730A0070B5054608F0F0F90646E868E9
:103850000468002C16D02068E968086000BF04F0F6
:103860000300002808D000BF0AA34FF48C7215A1F2
:103870001DA0FCF71BFE00BF00BF304608F0E2F9B8
:10388000204670BD304608F0DDF900BF00BF0020C3
:10389000F7E700002E2E2F4D6964646C6577617226
:1038A00065732F54686972645F50617274792F4C2C
:1038B0007749502F7372632F636F72652F6D656D3B
:1038C000702E63006D656D705F6D616C6C6F633A37
:1038D000206D656D702070726F7065726C792061FB
:1038E0006C69676E65640000417373657274696F1B
:1038F0006E2022257322206661696C6564206174E4
:10390000206C696E6520256420696E2025730A008D
:1039100070B50546002411E004EB4400094901EBB1
:10392000C000067D4EB104EB440001EBC00080688E
:10393000A84202D1204600F093F9641C0A2CEBDB6C
:1039400070BD000000C400202DE9FF5F06468946D7
:1039500017464FF00A0AD346D04600240A200390A7
:10396000002002900190009000BF77E004EB44003B
:103970007C4901EBC000057DB8F10A0F04D11DB9E7
:1039800000BF00BFA04667E0002D65D000BF012D3D
:103990000AD0022D08DA00BF73A340F2231280A1DF
:1039A0008FA0FCF783FD00BF00BFBEB104EB440154
:1039B0006C4A02EBC1013068496888420ED13FB1C0
:1039C00004EB4400114601EBC0008068B84205D109
:1039D00000BF00BF204604B0BDE8F09F012D28D1F4
:1039E00004EB44005F4951F8300080B104EB44001F
:1039F00001EBC000418A029881422DDB039404EB65
:103A00004400584901EBC000408A029024E004EBD6
:103A10004400544901EBC000418A019881421BDBFC
:103A2000A24604EB44004F4901EBC000408A0190DC
:103A300012E0022D10DB04EB44004A4901EBC00008
:103A4000418A0098814207DBA34604EB44004549C4
:103A500001EBC000408A0090601C04B20A2C85DB98
:103A600009F0020028B9B8F10A0F07D109F00100E6
:103A700020B900BF00BF4FF0FF30ACE7B8F10A0F2C
:103A800002DA444600BF37E0BBF10A0F13DA5C46A6
:103A900000BF00BF00BF04EB4400324951F83000C2
:103AA00040B100BF30A340F26D1257A14CA0FCF70B
:103AB000FDFC00BF10E0BAF10A0F02DA544600BF65
:103AC0000AE003980A2802DA039C00BF04E000BF62
:103AD00000BF4FF0FF307EE700BF0A2C08DB00BFBD
:103AE00021A340F27F124EA13DA0FCF7DFFC00BFF6
:103AF00000BF204600F0B4F800BF0A2C08DB00BF6E
:103B000019A340F2831246A135A0FCF7CFFC00BFF9
:103B100000BF00BF04EB4400124901EBC000007D70
:103B200040B100BF10A34FF4C27242A12CA0FCF719
:103B3000BDFC00BF00BF36B104EB4401094A02EBF3
:103B4000C10130684860002004EB4401054A02EBE3
:103B5000C101488204EB4400114601EBC0008760BC
:103B6000204638E700C400202E2E2F4D6964646C77
:103B70006577617265732F54686972645F50617212
:103B800074792F4C7749502F7372632F636F72656E
:103B90002F697076342F6574686172702E6300002F
:103BA0007374617465203D3D204554484152505F17
:103BB00053544154455F50454E44494E47207C7C08
:103BC000207374617465203E3D2045544841525035
:103BD0005F53544154455F535441424C45000000EB
:103BE000417373657274696F6E202225732220669B
:103BF00061696C6564206174206C696E6520256460
:103C000020696E2025730A006172705F7461626CB6
:103C1000655B695D2E71203D3D204E554C4C00008A
:103C200069203C204152505F5441424C455F53490A
:103C30005A4500006172705F7461626C655B695D1A
:103C40002E7374617465203D3D20455448415250A7
:103C50005F53544154455F454D5054590000000096
:103C600010B5044604EB4400194951F8300070B116
:103C700000BF00BF04EB4401154A52F8310006F0C2
:103C8000DBFD002004EB4401114A42F83100002022
:103C900004EB44010E4A02EBC101087504EB440138
:103CA00002EBC101488204EB440102EBC1018860D0
:103CB00004EB440102EBC101486004EB44001146EF
:103CC00001EBC00003490A68C2608988018210BD07
:103CD00000C40020FE640108F0B587B007460D4619
:103CE00000BF002D0AD100BF34A340F28A2241A1B7
:103CF00044A0FCF7DBFB00BF07B0F0BD00BF7C6851
:103D00002088B0F5807F08D12079062805D1607918
:103D1000042802D16088082805D000BF00BF3846BB
:103D200006F08AFDE8E7D4F80E000690A069059039
:103D3000686808B9002607E005986968884201D1DB
:103D4000012000E0002006460EB1012000E0022024
:103D5000034604F1080206A9284600F0EBFCE088BF
:103D6000B0F5807F03D0B0F5007F1ED11AE000BF10
:103D700000BF86B1022206AB04F10800291DCDE97F
:103D80000232CDE9001005F1260302462231284611
:103D900000F070FB05E0686808B900BF01E000BFF3
:103DA00000BF05E000BF00BF02E000BF00BF00BFD2
:103DB00000BF384606F040FD00BF9DE72E2E2F4D78
:103DC0006964646C6577617265732F5468697264A5
:103DD0005F50617274792F4C7749502F7372632F43
:103DE000636F72652F697076342F657468617270C5
:103DF0002E6300006E6574696620213D204E554C8F
:103E00004C000000417373657274696F6E20222547
:103E10007322206661696C6564206174206C696E30
:103E20006520256420696E2025730A002DE9FE4374
:103E300004460F461546A94600BF002C08D100BF16
:103E40005DA340F21E326AA16DA0FCF72FFB00BFFC
:103E500000BF00BF47B900BF57A340F21F3272A195
:103E600067A0FCF723FB00BF00BF00BF002D08D1F7
:103E700000BF51A34FF448726EA161A0FCF716FB7E
:103E800000BF00BF2146286802F0D3FE10B1DFF862
:103E9000B48186E0287800F0F000E02816D10120F7
:103EA0008DF8040000208DF805005E208DF80600D6
:103EB000687800F07F008DF80700A8788DF808007A
:103EC000E8788DF809000DF1040869E02868A16818
:103ED0000840D4E90112114088420ED0288880B2EF
:103EE0004FF6A961884208D0E06810B104F10C09CE
:103EF00003E06FF00300BDE8FE835348007800EB59
:103F00004000524901EBC000007D02281BDB4E48F7
:103F1000007800EB400001EBC0008068A04212D1A5
:103F20004949097801EB4101484A02EBC101D9F83E
:103F300000004968884206D1434802783946204645
:103F400000F086F8D7E7002622E006EB46003F495E
:103F500001EBC000007D022818DB06EB460001EBF8
:103F6000C0008068A04211D106EB4601374A02EB3F
:103F7000C101D9F800004968884207D1324806706B
:103F800032463946204600F063F8B4E7701CC6B2EA
:103F90000A2EDADB3A464946204600F00DF9AAE738
:103FA00000BF4FF40060434604F1260239460090FA
:103FB000204600F04BFD9EE72E2E2F4D6964646C69
:103FC0006577617265732F54686972645F506172BE
:103FD00074792F4C7749502F7372632F636F72651A
:103FE0002F697076342F6574686172702E630000DB
:103FF0006E6574696620213D204E554C4C000000D2
:10400000417373657274696F6E2022257322206676
:1040100061696C6564206174206C696E652025643B
:1040200020696E2025730A007120213D204E554CD9
:104030004C00000069706164647220213D204E557F
:104040004C4C0000F86401086C01002000C4002002
:10405000F8B505460E46144600BF04EB440031494E
:1040600001EBC000007D022808DA00BF2EA340F259
:10407000EE223BA146A0FCF719FA00BF00BF04EBFB
:104080004400284901EBC000007D022839D104EB2F
:10409000440001EBC000408AB0F58E7F11DD04EBD7
:1040A00044000A4602EBC000011D284600F0ACFAAD
:1040B00038BB032004EB44011A4A02EBC101087526
:1040C0001FE004EB4400174901EBC000408AB0F543
:1040D000877F16DB04EB44000B4603EBC00000F1C6
:1040E0000C0204EB440003EBC000011D284600F065
:1040F00099FA30B9032004EB44010A4A02EBC101EA
:1041000008754FF40060009004EB4400054901EB92
:10411000C00000F10C0305F126023146284600F0EC
:1041200095FCF8BD00C400202E2E2F4D6964646CF0
:104130006577617265732F54686972645F5061724C
:1041400074792F4C7749502F7372632F636F7265A8
:104150002F697076342F6574686172702E63000069
:104160006172705F7461626C655B6172705F6964DB
:10417000785D2E7374617465203E3D20455448413E
:1041800052505F53544154455F535441424C450093
:10419000417373657274696F6E20222573222066E5
:1041A00061696C6564206174206C696E65202564AA
:1041B00020696E2025730A002DE9FE4F81460F46C7
:1041C000164609F1260A4FF0FF30029000200190B8
:1041D0004946386802F02DFD38B9387800F0F00013
:1041E000E02802D00FB1386828B900BF00BF6FF0D7
:1041F0000F00BDE8FE8F4A4601213846FFF7A4FBB9
:104200008046B8F1000F07DA00BF00BF0EB100BF53
:1042100000BF4FFA88F0ECE700BFB8F17F0F08D37A
:1042200000BF62A340F2C1326EA172A0FCF73EF95A
:1042300000BF00BF08F0FF0404EB4400774901EB26
:10424000C000007D70B90120019004EB4401734A65
:1042500002EBC101087504EB4400114601EBC000FC
:10426000C0F8089000BF04EB44006C4901EBC000AB
:10427000007D01280FD004EB440001EBC000007D5D
:10428000022808DA00BF49A340F2CD3264A159A048
:10429000FCF70CF900BF00BF019800B93EB93946E0
:1042A000484600F0B1F902900EB90298A1E700BFAC
:1042B00046B900BF3DA340F2E13263A14DA0FCF737
:1042C000F5F800BF00BF04EB4400544901EBC00007
:1042D000007D022811DB5F4804704FF400600090FD
:1042E00004EB440001EBC00000F10C0352463146E0
:1042F000484600F0ABFB029055E004EB4400474910
:1043000001EBC000007D01284DD14FF0000B354678
:1043100018E000BF6889298988420AD1286840B11D
:1043200000BF22A340F2F1324BA132A0FCF7BEF84D
:1043300000BF00BF287B00F0400010B14FF0010B20
:1043400002E02D68002DE4D100BFBBF1000F07D0C3
:1043500032464FF420710E2006F05EF8054603E069
:104360003546284606F082FCBDB104EB44002B49DB
:1043700051F8300040B100BF00BF04EB4401274AB0
:1043800052F8310006F058FA04EB4400234941F892
:1043900030500020029000BF04E000BF00BF4FF08B
:1043A000FF30029000BF029823E700002E2E2F4D11
:1043B0006964646C6577617265732F5468697264AF
:1043C0005F50617274792F4C7749502F7372632F4D
:1043D000636F72652F697076342F657468617270CF
:1043E0002E63000074797065206F766572666C6F5D
:1043F00077000000417373657274696F6E20222527
:104400007322206661696C6564206174206C696E3A
:104410006520256420696E2025730A0000C40020F1
:104420006172705F7461626C655B695D2E7374614B
:104430007465203D3D2050454E44494E47206F72E3
:1044400020535441424C45007120213D204E554C93
:104450004C0000006C0100206E6F207061636B6582
:10446000742071756575657320616C6C6F77656418
:10447000210000002DE9FC5F06460F469046994654
:10448000DDE90CAB0020019000BF002E08D100BF79
:1044900033A340F2574240A143A0FCF707F800BF06
:1044A00000BF4FF420721C210E2005F021FD0546AF
:1044B0002DB900BF00BF4FF0FF30BDE8FC9F00BF2B
:1044C00068891C2808DA00BF25A340F2624240A197
:1044D00035A0FBF7EBFF00BF00BF6C6800BF00BF5B
:1044E0000F9803F0CCFEE08000BF96F82C00062861
:1044F00008D000BF1AA340F2694242492AA0FBF744
:10450000D5FF00BF00BFD9F80000A060B9F80400D3
:10451000A081DBF80000C4F81200BBF80400E082C0
:10452000DAF80000C4F80E000E980068A0614FF49D
:104530008070208008206080062020710420607137
:1045400040F6060043463A4629460090304600F0C1
:104550007DFA284606F070F900250198ADE70000C5
:104560002E2E2F4D6964646C6577617265732F54CC
:10457000686972645F50617274792F4C7749502F6B
:104580007372632F636F72652F697076342F657451
:10459000686172702E6300006E6574696620213D4B
:1045A000204E554C4C000000417373657274696F66
:1045B0006E2022257322206661696C656420617417
:1045C000206C696E6520256420696E2025730A00C1
:1045D000636865636B2074686174206669727374C4
:1045E00020706275662063616E20686F6C64207352
:1045F0007472756374206574686172705F68647248
:104600000000000030E5010870B504460D4600BF0B
:1046100000BF034A2946204600F004F870BD0000A0
:10462000F86401087FB504460D4616460121074A85
:10463000201D04F126038DE825000391324619461A
:104640002046FFF717FF04B070BD0000FE640108AC
:1046500070B500BF00BF002466E004EB440034499D
:1046600001EBC000057D002D5DD004EB440001EBA3
:10467000C000408A401C04EB44012D4A02EBC101FA
:10468000488204EB4400114601EBC000408AB0F5BB
:10469000967F0DDA04EB440001EBC000007D012899
:1046A0000CD104EB440001EBC000408A052805DB77
:1046B00000BF00BF2046FFF7D3FA34E004EB44000C
:1046C0001B4901EBC000007D032807D1042004EB47
:1046D0004401174A02EBC101087524E004EB4400D1
:1046E000134901EBC000007D042807D1022004EB30
:1046F00044010F4A02EBC101087514E004EB4400C9
:104700000B4901EBC000007D01280CD104EB4402F1
:104710000B4603EBC202111D04EB440203EBC20281
:104720009068FFF771FF641C0A2C96DB70BD0000D7
:1047300000C400202DE9F84305460E46174698466A
:1047400000BF95F82C00062808D000BF31A340F226
:10475000A9123EA146A0FBF7A9FE00BF00BF00BF03
:1047600000BF5EB1306848B12946306802F061FA96
:1047700020B9307800F0F000E02805D100BF00BF7C
:104780006FF00F00BDE8F8832A4641463046FFF738
:10479000DBF80446002C01DA60B2F3E7022004EBF8
:1047A00044013D4A02EBC101087504EB4400114687
:1047B00001EBC000856000BF00BF04EB440001EBCB
:1047C000C0003968C160B9880182002004EB44014F
:1047D00002EBC101488204EB4400114651F830005D
:1047E000B0B104EB440051F83090002004EB4401D8
:1047F00042F831004FF400603B4605F1260249467D
:104800000090284600F022F9484606F015F800BF4F
:104810000020B7E72E2E2F4D6964646C65776172B6
:1048200065732F54686972645F50617274792F4C9C
:104830007749502F7372632F636F72652F6970769B
:10484000342F6574686172702E6300006E65746940
:10485000662D3E6877616464725F6C656E203D3DD5
:10486000204554485F4857414444525F4C454E00F0
:10487000417373657274696F6E20222573222066FE
:1048800061696C6564206174206C696E65202564C3
:1048900020696E2025730A0000C400202DE9F04134
:1048A00004460E464FF00E0860890E2800DC59E0E1
:1048B000E07B18B996F83000401CE073656800BFD3
:1048C00000BFAF89287800F00100B0B12878012836
:1048D00009D1687888B9A8785E280ED1607B40F04D
:1048E0001000607309E0062221492846FBF764FFA7
:1048F00018B9607B40F008006073082F03D0B7F54B
:10490000C16F2AD114E096F82D0000F0080000B91C
:1049100028E04146204606F0FDF920B100BF00BF67
:1049200000BF00BF1EE03146204602F00FFB15E03D
:1049300096F82D0000F0080000B913E0414620462B
:1049400006F0E8F920B100BF00BF00BF00BF09E0DA
:1049500031462046FFF7C0F900E003E000BF002029
:10496000BDE8F081204605F067FF0020F8E7000071
:10497000F8640108704700009AB00646642101A857
:10498000FCF751F800240027A046A146354600BF99
:104990002C48FEF7D0F9044695F82D00C0F38000AE
:1049A00058B1012C09DC2848FDF7E4F8284604F04A
:1049B00079FD284604F0E0FD3FE095F82D00C0F3B6
:1049C0008000002839D1012C37DD022C06D0032CC1
:1049D0000AD0042C0ED0052C17D111E04FF4006939
:1049E0004FF48048012711E04FF000094FF4804850
:1049F00001270BE04FF400694FF00008012705E0A4
:104A00004FF00009C846012700E000BF00BFA7B172
:104A100001A90D48FCF7B2FCCDF81C90CDF8188028
:104A200001A90948FDF714F80748FDF74FF8284693
:104A300004F072FE284604F005FE642004F0CCFE6B
:104A4000A6E700003C4E0020544D00202DE9F04721
:104A500005460E4617469846DDF82090484603F076
:104A60000EFC82460E21304605F0C0F900B124E06C
:104A70007468A4F80CA0D8F800002060B8F804000E
:104A8000A0803868C4F80600B888608100BF95F837
:104A90002C00062808D000BF0AA34FF4997217A172
:104AA00023A0FBF703FD00BF00BF00BF00BF3146DE
:104AB0002846AA699047BDE8F08700BF00BF6FF0A5
:104AC0000100F8E72E2E2F4D6964646C65776172E2
:104AD00065732F54686972645F50617274792F4CEA
:104AE0007749502F7372632F6E657469662F6574F2
:104AF0006865726E65742E63000000006E657469EF
:104B0000662D3E6877616464725F6C656E206D75BA
:104B10007374206265203620666F72206574686544
:104B2000726E65745F6F757470757421000000009B
:104B3000417373657274696F6E202225732220663B
:104B400061696C6564206174206C696E6520256400
:104B500020696E2025730A0010B5044600BF44B9D1
:104B600000BF0CA34FF4FE7211A115A0FBF79EFC31
:104B700000BF00BF732084F82E0074212F20015540
:104B8000194860611948A061204603F0C7F9002068
:104B900010BD00002E2E2F4C5749502F54617267C4
:104BA00065742F65746865726E657469662E63003E
:104BB0006E6574696620213D204E554C4C00000006
:104BC000417373657274696F6E20222573222066AB
:104BD00061696C6564206174206C696E6520256470
:104BE00020696E2025730A002D3E000831810008DF
:104BF00006460024354600BF4FF0FF310B480068E1
:104C000004F0CEFF0028F7D100BF284603F07EFA5B
:104C100004463CB1294620462A69904710B12046F7
:104C200005F00AFE002CF0D1E6E70000200000208D
:104C30002DE9F04180460E460EB1307810B90020C3
:104C4000BDE8F081344600252BE008F1300040F843
:104C50002540274626212046FBF792FD04461CB13D
:104C600000202070641C08E020213846FBF788FDF6
:104C700004460CB10020207000243D213846FBF78B
:104C80007FFD07463FB100203870781C08F17001A5
:104C900041F8250004E0002108F1700040F82510DB
:104CA0006D1C102D01DA002CCFD12846C8E700007A
:104CB00013B50C464FF47A73012269460248FDF79A
:104CC000D9FF00981CBD0000000200200146D1E978
:104CD0000102801A7047704770B505460E4605B14F
:104CE00016B96FF00F0070BD0B4C11E030466168D3
:104CF000FBF7C0FE58B9A0682860E0686860E0680B
:104D0000A8600020E860207C28740020EBE724687D
:104D1000002CEBD1A01FE6E758DF01082DE9F04198
:104D2000074600BF002F08D100BF45A34FF44172D2
:104D300051A154A0FBF7BAFB00BF00BFFC6A00BF43
:104D400044B900BF3EA340F2063258A14DA0FBF784
:104D5000ADFB00BF00BF58480068F8B15748006875
:104D6000E0B157480068C8B1002513E05348006817
:104D700050F8251004F11200FBF77CFE48B9C02260
:104D800004F11B0128464C4B1B689847E081BDE8A5
:104D9000F0816D1C4A4800688542E7DB04F112008F
:104DA000FBF736FDA72804D204F11200FBF730FD13
:104DB00000E0A720092801D909200BE004F1120026
:104DC000FBF726FDA72804D204F11200FBF720FD13
:104DD00000E0A720064612223AA104F11B00FBF7CF
:104DE00081FD324604F1120104F12D00FBF77AFD3A
:104DF00006F1120004F11B01084437A10A680260A1
:104E00008A88828089798171002206F1190004F173
:104E10001B010A540846FBF7FBFC064600BFB6F52B
:104E2000803F08D300BF06A340F23F322CA115A05B
:104E3000FBF73CFB00BF00BFE68100BFA7E7000017
:104E40002E2E2F4D6964646C6577617265732F54E3
:104E5000686972645F50617274792F4C7749502F82
:104E60007372632F617070732F687474702F68741D
:104E70007470642E63000000687320213D204E553D
:104E80004C4C0000417373657274696F6E2022256B
:104E90007322206661696C6564206174206C696EA0
:104EA0006520256420696E2025730A0073736920CC
:104EB000213D204E554C4C00540000205C00002049
:104EC000580000203C623E2A2A2A554E4B4E4F572E
:104ED0004E205441472000002A2A2A3C2F623E00DF
:104EE0006C656E203C3D203078666666660000008A
:104EF0002DE9F04106460D46174600BF00BF324679
:104F000029461AA0FBF7D2FA00BF00BF07B91DB9A6
:104F10006FF00500BDE8F081012128460DF06CFA24
:104F200001F045FA04464CB900BF00BF15A0FBF7DD
:104F3000BDFA00BF00BF4FF0FF30EBE7E56121464F
:104F4000284607F0DBFA184928460CF075FB17498C
:104F5000284608F06DF80422154928460AF080FF1B
:104F6000144928460DF0F2F90020D3E768747470F4
:104F70005F616363657074202570202F2025700A9F
:104F800000000000687474705F6163636570743A58
:104F9000204F7574206F66206D656D6F72792C20BF
:104FA0005253540A00000000255B00089551000888
:104FB000E55900084163000870B506460C46606973
:104FC00028B92146304600F0DDF8002070BD606948
:104FD000FFF77CFE0546002D0CDC00BF00BF0CA0D7
:104FE000FBF764FA00BF00BF2146304600F0CAF864
:104FF0000020EBE700BF00BF09A340F29D4216A1CD
:1050000023A0FBF753FA00BF00BF0120DEE700003A
:10501000456E64206F662066696C652E0A0000008C
:105020002E2E2F4D6964646C6577617265732F5401
:10503000686972645F50617274792F4C7749502FA0
:105040007372632F617070732F687474702F68743B
:105050007470642E6300000053534920616E642015
:1050600044594E414D49435F4845414445525320C0
:105070007475726E6564206F666620627574206553
:105080006F66206E6F7420726561636865640000EE
:10509000417373657274696F6E20222573222066D6
:1050A00061696C6564206174206C696E652025649B
:1050B00020696E2025730A0070B504460D46002253
:1050C0002946204600F002F870BD00002DE9F041AD
:1050D00005460E46174600BF00BF29461CA0FBF739
:1050E000E5F900BF00BF0021284607F007FA0021BC
:1050F00028460CF0A1FA0021284607F099FF00226B
:10510000114628460AF0ACFE002128460DF01EF993
:1051100016B1304601F06EF92FB1284607F09CF821
:105120000020BDE8F081284607F0BAFA04466CB1C9
:1051300000BF00BF2A4621460BA0FBF7B7F900BF0E
:1051400000BF04220E4928460AF08AFE2046E8E7FE
:10515000436C6F73696E6720636F6E6E656374690D
:105160006F6E2025700A00004572726F72202564F0
:1051700020636C6F73696E672025700A0000000061
:10518000E559000870B504460D4629462046FFF74C
:1051900093FF70BD2DE9F04104460D46264600BF41
:1051A00000BF284603F0C2F80746394605A0FBF7C2
:1051B0007DF900BF00BF16B1304601F01BF9BDE814
:1051C000F0810000687474705F6572723A20257314
:1051D000000000002DE9F74F86B080460026B1465A
:1051E000002005900798FBF713FB8246BAF1000FE9
:1051F0006ED0AAF101000799085C2F2868D16E498A
:105200000798884202D1BAF1010F61D1AAF10100D9
:105210003F2801D93F2001E0AAF1010005463DB138
:105220002A4665480799FBF75DFB0020624948550F
:10523000002449E01DB3C5F13F0003900398D8B1A5
:105240005E4951F83400FBF7E3FA0290DDE9021001
:10525000884201D2039800E002980190574A52F820
:105260003410554A5019019AFBF73CFB0021019874
:105270002844514A115400BF4F48049003E04F485E
:1052800050F83400049000BF00BF4DA00499FBF714
:105290000DF900BF00BF40460499FFF71DFD83468E
:1052A000BBF1000F0FD104980790464600BF00BF26
:1052B00048A0FBF7FBF800BF00BF404800EBC4006C
:1052C0000079059002E0641C052CB3D300BF00BF39
:1052D000002E5FD13F210798FBF752FA8146B9F1C2
:1052E000000F04D0002089F8000009F101094FF0F7
:1052F000FF303B4908603B48006838B33A480068D3
:1053000020B300271DE03848006850F83710079890
:10531000FBF7B0FBA0B949464046FFF789FC30498E
:1053200008603148006800EBC70008F1700308F11D
:1053300030024568084601683846A847079004E0EF
:105340007F1C284800688742DDDB00BF00BF00BF2C
:1053500026A00799FBF7AAF800BF00BF40460799AF
:10536000FFF7BAFC8346BBF1000F01D1464604E0CB
:1053700007A9404600F040F806462EB1307C00F008
:10538000080010B10120059004E03046079901F0B3
:1053900043F8059026B907A9404600F02DF80646C7
:1053A0000598CDE9000931464046DDE9073200F0B5
:1053B00055F809B0BDE8F08FB45200201865010817
:1053C0004C6F6F6B696E6720666F722025732E2E8F
:1053D0002E0A00004F70656E65642E0A0000000002
:1053E0006800002064000020600000204F70656E9F
:1053F000696E672025730A0070B506460C460EA03C
:10540000206030462168FFF767FC054695B10DA086
:10541000206030462168FFF75FFC054655B10CA0BF
:10542000206030462168FFF757FC054615B1002083
:10543000206070BD3046FCE72F3430342E68746D28
:105440006C0000002F3430342E68746D00000000B2
:105450002F3430342E7368746D6C00002DE9F047E2
:1054600004460D4617469A46DDE90889002D5FD0AF
:1054700000BF2868002808D100BF32A340F60B12F5
:105480003EA143A0FBF712F800BF00BFB8F1000F28
:105490000FD000F079FF064656B10020B08186F8A3
:1054A000DC00286830606868B06028687060E66278
:1054B00000BF65612868A06100BF6868002808DA3D
:1054C00000BF20A340F634123BA131A0FAF7EEFF53
:1054D00000BF00BF68686062002084F8280000BF39
:1054E0006069007C00F00100002808D100BF15A30E
:1054F00040F6431238A126A0FAF7D8FF00BF00BF3C
:10550000E7B16069007C00F00100B8B13DA1626ABA
:10551000A06902F041FF06464EB1311DA269881A0A
:10552000A1690144A161616A091A616200BF05E0D5
:1055300000206061A061606284F828000020BDE85E
:10554000F08700002E2E2F4D6964646C65776172C0
:1055500065732F54686972645F50617274792F4C5F
:105560007749502F7372632F617070732F68747452
:10557000702F68747470642E6300000066696C6537
:105580002D3E6461746120213D204E554C4C00003D
:10559000417373657274696F6E20222573222066D1
:1055A00061696C6564206174206C696E6520256496
:1055B00020696E2025730A0046696C65206C656E53
:1055C000677468206D75737420626520706F7369ED
:1055D0007469766521000000485454502068656164
:1055E00064657273206E6F7420696E636C75646598
:1055F0006420696E2066696C652073797374656DCB
:10560000000000000D0A0D0A000000002DE9F74F10
:1056100084B00C46049D00BF45B900BF7DA340F295
:10562000AE728AA18CA0FAF741FF00BF00BF00BF95
:1056300044B900BF77A340F2AF7291A186A0FAF7F8
:1056400035FF00BF00BF606908B9A06958B100BF4D
:1056500000BF8EA0FAF72AFF00BF00BF6FF007005F
:1056600007B0BDE8F08F00BF00BF298990A0FAF70E
:105670001DFF00BF00BF206A40B900BF00BF91A05E
:10568000FAF714FF00BF00BF25620AE000BF00BFA9
:105690008FA0FAF70BFF00BF00BF2946206A04F075
:1056A00009FE284605F0E2FA206A006898B1206AEF
:1056B000008940F2FF31884202D2206A008901E06D
:1056C00040F2FF30814600234A468549206A05F0B2
:1056D00013F8834F0DE06F68B5F80A90688929893F
:1056E000884206D000BF00BF7EA0FAF7DFFE00BFF1
:1056F00000BFB9F1070F73DB4A4687A1384602F0B5
:105700004BFE8246BAF1000F6AD00020039000BF22
:1057100000BF82A0FAF7CAFE00BF00BF042287A123
:105720003846FBF794F838B9FE1C00BF00BF85A0CF
:10573000FAF7BCFE00BF0CE00020387100BF00BFCC
:10574000394686A0FAF7B2FE00BF00BF6FF00F0027
:1057500086E7701CC01BA9EB000080B202908CA1F0
:10576000701C029A02F018FE8046B8F1000F07D1B3
:1057700069A1701C029A02F00FFE8046012003907E
:10578000701CA8EB000080B20190B8F1000F1FD090
:10579000B0451DD94A467FA1384602F0FDFDB0B1A3
:1057A000701C0090002030700022DDE9000142549E
:1057B00000BF00BF394679A0009AFAF777FE00BF14
:1057C00000BF2046039A0099FFF704FD48E706E072
:1057D00000BF00BF7BA0FAF769FE00BF00BF00BF9B
:1057E000206A04F00FFE8346206A0089B0F5806FBE
:1057F00005D2BBF1050F02DC6FF0040030E700BFFB
:1058000000BF74A0FAF752FE00BF00BF6FF00F0098
:1058100026E700002E2E2F4D6964646C6577617257
:1058200065732F54686972645F50617274792F4C8C
:105830007749502F7372632F617070732F6874747F
:10584000702F68747470642E630000007020213D16
:10585000204E554C4C000000417373657274696FA3
:105860006E2022257322206661696C656420617454
:10587000206C696E6520256420696E2025730A00FE
:10588000687320213D204E554C4C000052656365E5
:10589000697665642064617461207768696C65204D
:1058A00073656E64696E6720612066696C650A00C5
:1058B0005265636569766564202564206279746544
:1058C000730A0000466972737420706275660A007C
:1058D0007062756620656E7175657565640A000095
:1058E000B44E00205761726E696E673A20696E632C
:1058F0006F6D706C657465206865616465722064A5
:10590000756520746F20636861696E6564207062DC
:105910007566730A000000000D0A000043524C46F1
:105920002072656365697665642C207061727369A5
:105930006E6720726571756573740A00474554205F
:105940000000000052656365697665642047455430
:105950002072657175657374220A0000556E737547
:1059600070706F72746564207265717565737420F0
:105970006D6574686F6420286E6F7420696D706C3B
:10598000656D656E746564293A20222573220A00CC
:10599000200000000D0A0D0A00000000526563653A
:1059A000697665642022257322207265717565739E
:1059B0007420666F72205552493A20222573220ABC
:1059C00000000000696E76616C6964205552490AD6
:1059D0000000000062616420726571756573740A6D
:1059E000000000002DE9F04106460D46344600BF98
:1059F00000BF287D07F042F907463B46224629466C
:105A000021A0FAF753FD00BF00BF74B900BF00BF6B
:105A100027A0FAF74BFD00BF00BF00212846FFF783
:105A20004BFB07460020BDE8F08114F8280F401C0E
:105A3000207014F8280904280CD100BF00BF24A04E
:105A4000FAF734FD00BF00BF21462846FFF734FBBC
:105A50000020E8E76069A8B100BF00BF25A0FAF701
:105A600025FD00BF00BF2146284600F06BF948B174
:105A700000BF00BF28A0FAF719FD00BF00BF2846ED
:105A800009F076F80020CEE7687474705F706F6C70
:105A90006C3A207063623D25702068733D2570204C
:105AA0007063625F73746174653D25730A00000062
:105AB000687474705F706F6C6C3A206172672069F3
:105AC00073204E554C4C2C20636C6F73650A00009C
:105AD000687474705F706F6C6C3A20746F6F206DB7
